:10000000A0D6002065050000610500006105000024
:1000100061050000610500006105000000000000AE
:10002000000000000000000000000000610500006A
:100030006105000000000000610500005D05000092
:100040006105000061050000610500006105000018
:100050006105000061050000610500006105000008
:1000600061050000610500006105000061050000F8
:1000700061050000610500006105000061050000E8
:1000800061050000610500006105000061050000D8
:1000900061050000610500006105000061050000C8
:1000A00061050000610500006105000061050000B8
:1000B00061050000610500006105000061050000A8
:1000C0006105000061050000610500006105000098
:1000D0006105000061050000610500006105000088
:1000E0006105000061050000000000000000000044
:1000F00000000000610500006105000061050000CE
:100100006105000061050000610500006105000057
:100110006105000061050000610500006105000047
:100120006105000061050000610500006105000037
:100130006105000061050000610500006105000027
:100140006105000061050000610500006105000017
:1001500061050000610500000000000000000000D3
:10016000000000000000000000000000000000008F
:1001700000000000000000006105000061050000B3
:1001800061050000610500006105000061050000D7
:10019000000000006105000061050000610500002D
:1001A00061050000610500006105000061050000B7
:1001B00061050000610500006105000061050000A7
:1001C0006105000061050000610500006105000097
:1001D0006105000061050000610500006105000087
:1001E0006105000061050000610500006105000077
:1001F0006105000061050000610500006105000067
:100200006105000000000000000000006105000022
:100210006105000061050000610500006105000046
:100220006105000061050000610500006105000036
:100230006105000061050000610500006105000026
:100240006105000061050000610500006105000016
:100250006105000061050000610500006105000006
:1002600000000000B0F5002F0FD2084B4AF20151F8
:100270005A8AD207FCD5586199805A8AD207FCD590
:1002800000F50050B0F5002FF2D370470040004158
:10029000531E3AB1043851F8042B40F8042F013BA7
:1002A0005A1CF8D1704700BF70B51C4E338823F03C
:1002B000300304460D4610463380738ADB07FCD5B5
:1002C0004AF21553154AB380538AD907FCD518B39F
:1002D000124A4AF204560428844628BF4FF0040C00
:1002E000538ADB07FCD5A4F1040E00239C4588BF8C
:1002F00055F8231003F1010398BF4FF0FF31042B91
:100300004EF8041FF2D1B0EB0C00546105EB8C05E4
:10031000968004EB8C04DED170BD00BF004000412C
:100320002DE9F04F564B87B01A8842F480421A806C
:100330001A88834642F400421A8000AF400B0B1F1C
:10034000ABF1040201F1FC0602E0B34200F08B8045
:1003500053F8045F52F8044FA542F6D0DFF8249119
:1003600019F800405CB140225846FFF79DFF444A0F
:10037000538ADB07FCD51C37BD46BDE8F08F424DE4
:10038000C7F814D02BF4FF5205F1200622F01F020B
:1003900006EB40164FEA401E05EB401304B91C78EB
:1003A0000133B342FAD1ADF5005DEC4654B30EF122
:1003B000FF36C7E90342C7E901C02E440CF5005AD5
:1003C0006346A2EB0C08C7F800E00C4603E003F517
:1003D000807353450FD016F8012F002AF7D008EB91
:1003E000030118464FF4807201F0F2FF034603F553
:1003F00080735345EFD1D7E901C021463A69D7F858
:1004000000E0FC681E4E738ADB07FCD54AF20153FC
:10041000C6F814B0B3801A4E738ADB07FCD50123EB
:1004200009F80030E4B1194B03EB0E080EF1FF3E62
:100430001446ACEB02067544894603E0A84504F572
:1004400080740CD015F8013F002BF7D031192046ED
:100450004022FFF729FFA84504F58074F2D14946F0
:10046000D7F814D07FE7084BCBF3042B03EB4013F2
:1004700001221C3703F80B20BD46BDE8F08F00BFFA
:1004800000400041D0090020D0010020EF010020F1
:1004900010B42C492C4A0B8843F004030B801378CA
:1004A00043F0010313705368DB07FCD440F60413D8
:1004B0002548136243685C07C3F38001FAD4234ADA
:1004C000234B1177936292F82C30D906C3F30010B6
:1004D000F9D41E4982F8200091F82C305B07FBD438
:1004E0000B7F1A4A43F002030B7792F82C309C07DB
:1004F000FBD4536A1549536291F82C301807FBD48A
:100500009823124A81F820301369D905FCD50E4A88
:1005100040F6063313625368C3F380015B07FAD4D5
:100520000C480D4A4FF0E0230124447140F2E734B7
:10053000E0205C6182F82300072299611A6110BCF7
:10054000704700BF00400041001C00400010004008
:1005500080BB01040008004000ED00E000F0E0B8BE
:10056000FEE700BF11491248814208B509D0114A7F
:10057000904206D2013A121A22F00302043201F02C
:1005800027FF0D480D4A904207D2013A121A22F075
:1005900003020432002101F031FF094B094A23F024
:1005A0007F03936000F0F6FFFEE700BF2426000003
:1005B00000000020D0010020D0010020A016002063
:1005C0000000000000ED00E0F0B5184DB5F802E0C5
:1005D00007460E46BEF1000F20D1A81E05F5FF7498
:1005E00041F22101724608230FFA82FCBCF1000F90
:1005F00003F1FF334FEA4202B8BF81EA4C0C9BB2D1
:10060000ACBF92B21FFA8CF2002BEDD120F8022F72
:100610000EF5807EA0421FFA8EFEE3D187EA1623F4
:1006200035F8130080EA062080B2F0BD100A0020E1
:10063000BFF34F8F0449054BCA6802F4E0621343CD
:10064000CB60BFF34F8FFEE700ED00E00400FA053A
:1006500070B51344157802F101028024416003262D
:10066000013EFDD12C4200D101600626013EFDD1A4
:100670000160641004D0E4B20226013EFDD1EDE732
:100680009A4200D2E6E770BD084A117841F6AA23E3
:1006900041F6D102002918BF134603FB00F00128E0
:1006A00003D9012301339842FCD17047100C00207C
:1006B00010B484461C24002009E0092B17D93733D5
:1006C000043C0CF80030231D00F1010015D021FA84
:1006D00004F303F00F03002AEFD1002BEDD144B156
:1006E000043C60B921FA04F303F00F03F5E730335B
:1006F000E6E730230CF80030013010BC704730239F
:100700000CF800300130E2E708B5034B034AC3F8A8
:10071000FC2FFFF78DFF00BF00F00220EF6916F0FD
:100720001C4A1D491D4813684FF0010C81F800C098
:1007300001686344136041B1A1F57A7293421FD0FE
:100740008B421CD1002303607047154913F0FF034F
:100750000A7812D110B4134B134C4FF40000986177
:10076000A2F10A00C0B2F028237802D95B42DBB2C2
:10077000237013440B7010BC7047934205D0704730
:10078000084B4FF400029A617047064B4FF4000289
:100790005A617047180C0020100C0020140C002027
:1007A000000000200080004101000020064B074AA5
:1007B0001B681168994206D2054903F5FA634FF4A4
:1007C0000000136048617047180C0020140C0020D2
:1007D00000800041054B4FF40001082299609961A7
:1007E000C3F88820C3F89820704700BF00800041FC
:1007F00010B5144B82B0010A020C04248DF80600D7
:100800008DF804108DF805200120C3F88840C3F846
:100810009440FFF739FFEFF3108353B972B60A48DB
:1008200003230DEB04022146FFF712FF62B602B06C
:1008300010BD0548032301AA2146FFF709FF02B0B6
:1008400010BD00BF008000419480004108B5002029
:10085000FFF7CEFF024B034AC3F8FC2FFFF7E8FE79
:1008600000F00220EF6926F038B50B4A136863B92F
:100870000A480B4D01684FF4FA6414602C6801318A
:1008800001600CB1A14203D238BD013B136038BDF9
:100890002B60FFF7DBFF00BF240C0020200C0020A2
:1008A0001C0C002038B54FF08242194B546A1D8849
:1008B0006369C3F302738D4203F103034FF0010236
:1008C00028BF0D4602FA03F39D42014619D363691E
:1008D00043F0004363612161636965F30D03636164
:1008E00063694FF0824002216FF39B338022636182
:1008F00080F8071180F8052190F807319B07FBD598
:1009000038BD04482A4601F063FD0249E3E700BF11
:10091000280C0020540D002010B4414B414A93F89C
:100920005800414940F0010083F8580093F83C001A
:1009300000F0F00083F83C0093F83C0040F0070022
:1009400083F83C0093F8590040F0010083F8590007
:1009500093F83C0000F00F0083F83C0093F83C0053
:10096000402440F0700083F83C00C2F8A8400B69B6
:1009700043F480630B618B6943F001038B6153681F
:100980005B07FCD44FF082431A7842F001021A70E0
:10099000997811F00101FBD14FF400024FF082432E
:1009A000D2F88420B3F828C002F01F001F2808BF27
:1009B000052060F38A1CA3F828C0C2F34410B3F8E2
:1009C00028C01F2808BF1D2060F3040CA3F828C00E
:1009D000C2F38222188D072A08BF032262F30E3069
:1009E00018851A78114861F3C7121A701A7842F004
:1009F00004021A705862B3F808C061F3830CA3F8BC
:100A000008C0B3F808C02CF0010C4FEA0C4C4FEAB8
:100A10001C4CA3F808C010BC4FF4807201F0EEBC6F
:100A200000800041001C004000080040500C0020E5
:100A30002DE9F8434FF082440746D4F824800E464F
:100A40001546002B57D01C46627823789A423ED335
:100A5000A378690108EB4512B3B9201D41F80800DD
:100A6000506863F30D005060506801F1824563F3F4
:100A70009B30506095F804314FF0010C43F0400377
:100A800085F8043184F802C001F1824999F80731F0
:100A900013F0010317D05568A378EDB2022B25702F
:100AA00031D0AE4228BF2E461FB36670324638465C
:100AB000211D01F08DFC0122002389F80721A3707C
:100AC0003046BDE8F8831E463046BDE8F8839B1AE1
:100AD0009E4228BF1E46002FF6D0211D11443846E5
:100AE000324601F075FC6378334463703046BDE8EC
:100AF000F8836770DFE7074C02EB021304EB830413
:100B0000FFF7B2FEA0E751F808102A46201D01F0B9
:100B10005FFCC6E7500D002071B1F8B505461746D9
:100B20001E460C462146284633463A46FFF780FFCC
:100B3000241A0544F6D1F8BD704700BF70B50E46C3
:100B40004FF0824154014D6A05EB4215D3B16B69F8
:100B500023F000436B6128616B6966F30D036B61E1
:100B60006B6904F1824C6FF39B336B61022280232B
:100B70008CF807218CF805319CF807319B07FBD5D1
:100B8000304670BD6B69C3F302730333012101FA70
:100B900003F3B34207D86B69043A18BF012262F32A
:100BA000DF736B61D7E701464FF0040C0448442320
:100BB00013FB02C303443246184601F009FCCAE79E
:100BC000500D00200023FFF7B9BF00BF4FF0824255
:100BD0000B49536A5869196159696FF30D015961DD
:100BE00059694FF0020C80206FF39B31596182F8F4
:100BF00007C182F8050192F807319B07FBD57047C2
:100C0000540D00202DE9F0434FF0824499B0FFF7D6
:100C10002BFEA38B13F008032BD008208022112178
:100C2000A083B64BA27284F80011402184F805110C
:100C300084F804215A68B24D4FF0030C6CF31E7215
:100C40005A605A696CF31E725A61AE4A1A60AE4A13
:100C50001A615A6860F39B325A605A686FF30D024A
:100C60005A600023184684F804112B7019B0BDE8AF
:100C7000F08394F80721D60607D4A14B18780038E2
:100C800018BF012019B0BDE8F083A04DA048AA8884
:100C9000102184F807116E890680402640F2023048
:100CA00084F80461824295F80680EF8895F807E0A1
:100CB000B5F808C000F0D68112DCB2F5817F00F0F3
:100CC000AF8129DC822A00F0FF804CDC803A012AC7
:100CD0001CD8022106A8ADF81830FFF7E3FDCCE7D9
:100CE00040F621118A4245D024DD42F2A1139A42F6
:100CF00000F0918100F3B38022F4807340F621214B
:100D00008B4237D042F221039A4233D04FF08243D4
:100D1000202283F80521B0E7B2F5307F00F0BA80D9
:100D200000F3AE80B2F5E07F40F0BD80202384F870
:100D30000531A2E740F281618A421EDCB2F5D06F34
:100D400080F2EC8040F2A1339A4200F0B580B2F517
:100D5000A06FDBD1FFF73AFF4FF0824267F07F03CD
:100D6000DBB2937289E7B2F5807FDFD040F20113E6
:100D70009A42CBD1FFF72AFF7FE7B2F5086F00F068
:100D8000B780B2F5106FC1D15D4A01931770FFF7BC
:100D90001DFF5A4A032184F84011506C61F31E7004
:100DA000506430275B4884F84561106484F82071F2
:100DB000556B61F31E755563A0F1440C802584F8D2
:100DC0002451C2F830C084F86061D2F874C0019B2D
:100DD00063F31E7CC2F874C084F8645184F8A011D7
:100DE000D2F8A43061F31E73C2F8A43000F1CC0332
:100DF00084F8A561C2F8A03084F88071D2F89430EC
:100E000061F31E73C2F894308830442384F884510F
:100E1000C2F8900084F8C03184F8C46184F8C451E9
:100E2000D2F8C40061F31E70C2F8C400D2F8D40036
:100E300061F31E70C2F8D40084F8E03184F8E461F4
:100E400084F8E451D2F8E43061F31E73C2F8E43060
:100E5000D2F8F43061F31E73C2F8F4300DE742F2B9
:100E600021239A4286D04FF6A1639A427FF44EAF77
:100E70000023012106A8ADF81830FFF713FDFCE6AA
:100E8000B2F5407F3FF452AF40F201339A423FF453
:100E900071AF3BE7BCF1070F7FF448AF1E48AA21B2
:100EA000FFF700FDE9E640F2A1239A4204D040F2A8
:100EB000A1139A427FF42AAF0023082106A8CDE9A6
:100EC0000633FFF7EFFCD8E61CF0080F7FF42EAFD7
:100ED0000CF00F035B0103F1824303F580731CF0F8
:100EE000500F9B7914BFC3F34013C3F30013F0E614
:100EF00003480121FFF7D6FCBFE600BF500C0020DD
:100F00004D0C0020740F0020540D0020700F0020A5
:100F1000280C0020DC0D00200C000020B7F5807F9D
:100F200000F0B580B7F5007F00F0B680AEF1030E9B
:100F3000BEF11F0F3FF6EAAE01A353F82EF000BF3B
:100F4000DF0F00000D0D00000D0D00000D0D000065
:100F50000D0D00000D0D00000D0D00000D0D000029
:100F60000D0D00000D0D00000D0D00000D0D000019
:100F7000D50F00000D0D00000D0D00000D0D00003F
:100F80000D0D00000D0D00000D0D00000D0D0000F9
:100F90000D0D00000D0D00000D0D00000D0D0000E9
:100FA0000D0D00000D0D00000D0D00000D0D0000D9
:100FB0000D0D00000D0D0000CB0F0000C10F000053
:100FC00059482121FFF76EFC57E658480921FFF7E1
:100FD00069FC52E656483921FFF764FC4DE6B8F14A
:100FE000030F3FF693AE4822002106A801F006FA4F
:100FF00003238DF81930B8F1000F64D1042240F2B8
:1010000009438DF81820ADF81A309DF8181006A87D
:10101000FFF748FC31E647480821FFF743FC2CE680
:101020001CF00F033FF472AE0CF008023A437FF459
:101030006DAE5B0103F182431CF0800F93F8062133
:101040002FD1D0067FF596AE83F8041193F80721CF
:1010500092067FF58FAE2021012283F8071183F8D5
:10106000042187E61CF00F033FF450AE0CF0080299
:101070003A437FF44BAE5B011CF0800F03F18243D7
:101080001ABF202283F8052183F8051172E62A4849
:101090001221FFF707FCF0E528489921FFF702FC31
:1010A000EBE595067FF566AE202283F8042193F8E0
:1010B000072154067FF55EAE4021022283F8071116
:1010C00083F8042156E61E4BDFF878800FCB02AC84
:1010D00084E80F000027A1463E4659F8043B08EB80
:1010E000060019680122FFF7E3FA0137042F0644CE
:1010F000F3D10023AA7908F80630134B53F82240A5
:10110000204601F073F9431C5B008DF818302378FA
:10111000002B3FF47AAF06AA02F8023F14F8013F11
:10112000002BF9D171E700BF5C2400009001002082
:10113000B80000200400002080240000F4000020FB
:10114000942400002C0C00204C24000008B5FFF76C
:10115000E3FB054B4FF0824200211970137843F0F6
:101160000203137008BD00BF4D0C002038B54FF0CE
:10117000824301225C6A636BC3F3027303330D463F
:101180009A40954204F1200401461AD3636943F062
:10119000004363612161636965F30D036361636902
:1011A0004FF0824C6FF39B336361022280238CF8F3
:1011B00027218CF825319CF827319B07FBD5284641
:1011C00038BD03482A4601F003F90149E2E700BFB0
:1011D000980D002038B54FF0824301225C6A636BA2
:1011E000C3F3027303330D469A40954204F1200481
:1011F00001461AD3636943F0004363612161636967
:1012000065F30D03636163694FF0824C6FF39B33A9
:101210006361022280238CF827218CF825319CF809
:1012200027319B07FBD5284638BD03482A4601F0E5
:10123000CFF80149E2E700BF980D002070B50446E1
:101240000D46FFF7DFFC00B970BD2946204600239C
:10125000BDE870400222FFF7EBBB00BF70B505464A
:101260000E46FFF7CFFC00B970BD4EB134462146A3
:10127000284600230222FFF7DBFB241A0544F6D19F
:10128000304670BD002A0FDD024405E000F8013B46
:10129000824201F1010107D00B78002BF6D1202307
:1012A00000F8013B8242F7D1704700BF2DE9F047BB
:1012B0000D4604464FF400720021284601F09EF8C6
:1012C00024BB6C4CAE4604F13006A446BCE80F00CB
:1012D000B445CEF80000CEF80410CEF80820CEF8C1
:1012E0000C3004F110040EF1100EEED107CC4AF6CA
:1012F0005523CEF800002088CEF80410CEF8082040
:10130000AEF80C00A5F8FE31BDE8F0877E2C24D89D
:10131000621E3E2A88BFA4F14002002A47D0130271
:10132000C2EBC25203F5807C05EB422040F6030E6F
:1013300003E05A1C94451346E6D01A1FB2F5006F1D
:10134000F7D2734503F1010214BF91B24FF6FF715A
:1013500020F8131008BF5A1CECE7822C32D9A4F1F4
:101360008303012B78D9853C2102B1F5002FCBD224
:10137000414B2B6003F1144303F52C1303F60233A6
:101380006B603E4BC5F8FC313D4B6C614FF4006027
:101390004FF48072C5E90603C5E903124FF4005308
:1013A000AB6005F12000BDE8F04701F011B82B4615
:1013B000F02103F8011B4FF0FF31C5F8011059600F
:1013C0001972ACE77F2C9FD146232E492A4605F19E
:1013D0000B003BB1013102F8013B824204D00B7893
:1013E000002BF7D12023F6E72823DFF89C80EB724F
:1013F00002272B356FF0660A4FF04D09D8F80C0024
:10140000A5F10B06444620B300F0F0FFF0617783AE
:10141000324605E002F8013BAA4204F1010407D07C
:101420002378002BF6D1202302F8013BAA42F7D102
:101430000137BFB2052F86F810A086F8119086F804
:1014400018A086F8199008F1100805F12005D5D1EB
:101450005AE74FF48010D9E70B4A02EB0313DC681C
:10146000204600F0C3FF214602462846BDE8F0476B
:1014700000F0AEBFA42400005546320A306FB10A16
:1014800060441155CF240000E424000010B50C4640
:101490003B492068884282B001D002B010BD01F102
:1014A0001441606801F52C1101F602318842F4D133
:1014B0003449D4F8FC018842EFD1A168880404D5EE
:1014C0003148D4F81CC08445E7D1C90703D4216949
:1014D000B1F5807F34D0002B45D0A169002942D0DE
:1014E0001868814208D040F6630C614501D8002895
:1014F00043D04FF0FF311960616940F663008142CB
:10150000CBD801F0070403EBD101012091F808C00A
:10151000A04010EA0C0F5C685FFA80FE05D14CEA2F
:101520000E0C013481F808C05C601B68A342B4D87B
:10153000002AB2D1154B164A1B681E331360ACE764
:10154000E068C1B20029C6D1A0F58041B1F5F82FFD
:10155000C1D204F12001CDE90023FEF7E1FEDDE96F
:101560000023002BB9D1002A97D1084B084A1B68E9
:1015700003F59673136002B010BD1960BCE700BF9D
:101580005546320A306FB10A60441155200C0020D4
:101590001C0C0020F8B5624B9B68002B40F0858046
:1015A000604A13709368002BFCD15F4A116963F3A2
:1015B00041011161D3685B07FCD51369C82161F350
:1015C000174313611369584923F00C03136113691E
:1015D00043F002031361CB68DF07FCD5524AD3689E
:1015E0009E07FCD4514B1A78D5075FD54E4C64202A
:1015F000FFF74AF8E3689807F9D44B4A136923F0D8
:1016000002031361D3685907FCD51369012161F303
:1016100083031361136943F002031361FFF7DAF8E0
:101620004FF480435C68A4F58042B2F5F82F19D8D6
:101630003F4AD3F8683293425AD03C4B1B7813F0A0
:10164000010343D03B4B0022C3F8FC2F3A4A4FF42E
:1016500080434FF4000151611A6882F30888304AD0
:1016600093602047354FFEF713FFBFF35F8F62B6DD
:10167000FFF76CFD324E334C4FF48020FFF7B8F883
:101680000A2333700125FFF7BDFA20B1237803F058
:10169000FF02A3B12570237863B92378002BF2D120
:1016A000FF2300BF013BFCD1EDE7FEE71B785C07A1
:1016B000A3D59BE700F0CEFA00F0CCFAFAE74FF49E
:1016C00080603A60FFF794F83570E3E7194A1E49E5
:1016D000D2F8FC0F88421FD0D2F8FC0F1B4B984267
:1016E000B0D0C2F8FC1F4FF4FA70FEF7CDFFA9E7A7
:1016F0000E4B1B78DB0705D40E4A144BD2F8FC2F97
:101700009A429AD00B4A1149114BC2F8FC1F1B6830
:101710000A4F32333B60A6E7084FC2F8FC3FA2E70E
:1017200000ED00E00020004000180040000C0040E8
:101730007CB0EE8700F00220008000411C0C0020ED
:1017400001000020B40F0020EF6916F0EF6926F0C9
:10175000200C002080B50646E4B072B6BFF35F8F60
:101760004FF082434849002440F2FF329A820DA88C
:101770009A838C604422214600F040FE4FF48C7224
:1017800021461EA800F03AFE02238DF83630737809
:10179000F168079403F00F037370B3788DF820405D
:1017A00003F00F03B370394B05937368069301225E
:1017B0001EAB40F6FF70FFF769FEB3688BB1B278DD
:1017C000F0680DAB4FF40071FFF7A6F91EAB04F5FE
:1017D0008050F1680122FFF759FEB36801349C4242
:1017E000EDD372782A4FDFF8A48001230D2105A8DC
:1017F000FFF7A4F90024B5780DAB2A46012100209B
:10180000FFF716F9002835D00DAB2A461F2105A891
:10181000FFF70EF9DDE906129DF82330039200244C
:10182000CDE901818DF81040EBB12A2B29D1BDF80B
:101830002A506DBAADB2B56095B1B278F0680DAB13
:101840004FF40071FFF768F91EAB04F58050F168A2
:101850000122FFF71BFEB36801349C42EDD3039ACB
:10186000A2EB45220392727801230D2101A8FFF714
:1018700065F9BFE7BC4201D80134BCE7FEF7E6FFDB
:10188000FAE7FEF741FFEEE700ED00E05342535563
:10189000A0860100F8B504220E46FFF793F98642B0
:1018A00019D1194C194D1A4F7A686A600023C4E99E
:1018B0000033C4E9023323822B73AB6813489B1BAC
:1018C000AB60F02323700A23E371BDE8F8400422E3
:1018D0000D21FFF777B90C4C0C4D0D4F0023C4E9D7
:1018E0000033C4E902332382F02323700A23E37117
:1018F00001232B7304227B68A2700D2128466B60A4
:10190000FFF760F9D0E700BFEC120020C001002013
:10191000001300201F4A002310B5C2E90033C2E9BA
:1019200002331D4C136178B3E17D02F1080E0823E8
:1019300094F811C00CF03F0CBCF11C0F0ED0BCF1A0
:101940003F0F0BD0994228BF1946B0B1023B1B0292
:101950001380BDE810400F48FFF79CBF0C33DBB28B
:1019600040F61C24AEF8004099424FF005048EF872
:10197000034028BF19460028E8D1013B1370BDE899
:1019800010400448FFF786BFE17C02F1040E0423F7
:10199000CEE700BFC00F0020001300202DE9F84F54
:1019A000DFF8B480B8F816B0D8F811309BFA9BFB7A
:1019B0001FFA8BFBBBF1000F32D0284D284E074693
:1019C00093FA83F9002410E05046FFF76FFC0422DD
:1019D0004FF400712846FFF7F5F8B3680134A3F51A
:1019E0000073A345B360B4461CD0FFF70BF98446DF
:1019F000052229463B462846BCF1000F2AD009EBB8
:101A0000040A002FE0D14FF40071FFF785F8154B61
:101A10003A4629465046FFF739FDFEF7C7FEDCE798
:101A2000DFF83CC0104BD8F80440CCF8044000214B
:101A3000C3E90011C3E90211F0221A700A221982C7
:101A4000DA718CF80C10BDE8F84F054804220D211E
:101A5000FFF7B8B8BDE8F88F00130020EC100020A5
:101A6000C0010020D40F0020EC12002070B584B01B
:101A700000F054FC0023052201211846FEF7D8FF90
:101A800008B904B070BD534C534D002305221F21EB
:101A90002046FEF7CDFFE37BA668AE605A2B45D803
:101AA000DFE803F02E44448F444444444444444417
:101AB0004444444444447E44444444444444892E7D
:101AC00044442E444444445A446A444476447C4446
:101AD0004444442E444444444444444444444444DC
:101AE00044444444444444444444444444444444B6
:101AF0004444444444444444444444444444950099
:101B0000364B646834480021F022C3E90211C3E96E
:101B100000111A700A22DA711982042229730D2128
:101B20006C6004B0BDE87040FFF74CB82B4B6468A4
:101B300029480022F021C3E90022C3E902221A82C7
:101B4000197001220A21D9712A7305214FF400521C
:101B50009A8199700422E2E7214A07CA01AB0C2E50
:101B600083E8070088BF0C224FF00C01184688BF9D
:101B7000AA60FFF78FFE84E71A481B4A4FF4003330
:101B8000C0E90023082104B0BDE87040FFF782BE21
:101B9000012004B0BDE87040FFF700BF0020F8E767
:101BA000124913481822FFF76DFBE17C11482429E4
:101BB00028BF2421E7E7002004B0BDE87040FFF70C
:101BC000A9BEE17C0548122928BF1221DBE70120CC
:101BD000F2E700BF00130020C0010020EC1200203B
:101BE000E4250000B80F002000003E7F2024000004
:101BF000A40100209C01002072B6BFF35F8F4FF05C
:101C00008243044940F2FF3200209A829A8388601E
:101C1000704700BF00ED00E030B5EFF30883054CDE
:101C20002360036883F308884568A847236883F323
:101C3000088830BD8813002000B583B0014601221A
:101C40006846FEF735FD08216846FFF78FFA03B0B6
:101C50005DF804FB2DE9F04FDFF868A2DFF8689229
:101C60009A4C9B4F9B4E9C4DDFF8708200227A234A
:101C700083B0CAF8002089F80030FFF7F7FE402152
:101C80002046FFF7DBFA4FF0000B04F800B0386095
:101C900010B928603460F0E7FEF788FD38683460DA
:101CA000C5F800B00028E8D021465B460A78462AED
:101CB0002DD8222A37D9A2F1230CBCF1230F32D818
:101CC000DFE80CF04031313131313131313B3131EC
:101CD000311212121212121212121231313131312A
:101CE0003131353535353535D8F80030303A42EABE
:101CF00003120131C8F8002031602B6838680133C5
:101D000083422B60B9D231680A78462AD1D9662A33
:101D100007D8602A07D9D8F80030573A42EA0312A8
:101D2000E7E7FF2AE9D089F800200022E1E7D8F8A8
:101D30000030373A42EA0312DBE7D8F80030CAF83D
:101D40000030F2E799F80020473A302A52D8DFE80D
:101D500012F02001150151005100510051005100B5
:101D600051000A0151005100FE00D5005100510000
:101D7000AF00A00092007F003100510051005100DF
:101D800051005100510051005100510051005100CB
:101D9000510051007000510051005100510051009C
:101DA0005100650051005100510051005100510097
:101DB00051005600D8F80030DAF800B063B15B4447
:101DC0000193002319461BF8010BFEF7FDFB019B55
:101DD0005B450146F7D10346012141480193FFF7D6
:101DE000C5F9019B1846FFF727FF3E480321FFF77F
:101DF000BDF931687A2389F80030002279E7DAF8F2
:101E0000003036481B68C8F800300421FFF7AEF9EF
:101E10007A23316889F8003000226AE70121DAF874
:101E20000000FFF7A3F97A23316889F80030002217
:101E30005FE7DAF8003029481B88C8F80030022133
:101E4000FFF794F97A23316889F80030002250E7CF
:101E5000D8F80020DAF80000002A40F0AF80224BCA
:101E6000186003212148FFF781F97A23316889F846
:101E7000003000223DE7D8F80000FEF7F3F9032117
:101E80001B48FFF773F97A23316889F80030002284
:101E90002FE7DAF80030174A934200F09580D8F81F
:101EA00000201A607A23316889F80030002220E788
:101EB0002A211148FFF75AF97A23316889F800304E
:101EC000002216E774130020781300202C13002042
:101ED0007C13002070130020801300208413002046
:101EE0004424000048240000201300204024000067
:101EF0003C2400000CED00E0F02500000133C21A84
:101F00002B60D8F80030DAF800009A4228BF1A4651
:101F1000304B01319B461A60316000F059FA2E4A6D
:101F2000DBF8003013702A681A44013A2A603268DC
:101F3000591E0A44D8F800103260DBB2994237D8F3
:101F400000BF7A23316889F800300022D1E6D8F842
:101F50000010DAF80000FFF73DF97A23316889F8BC
:101F600000300022C5E6DAF80030D8F800201A70F8
:101F70007A23316889F800300022BAE6DAF80030B6
:101F8000D8F800201A807A23316889F800300022BE
:101F9000AFE6D8F80000FFF73FFE104B1B78002B90
:101FA0003FF427AF01210E48FFF7E0F8316821E741
:101FB000DAF80000C91AFFF751F9C1E7094B920896
:101FC0001968FEF771F94CE70020FEF711FCDAF80A
:101FD000003064E724130020281300208C13002015
:101FE00038240000201300202DE9F047836CB0F85E
:101FF0004C10A0F848100022013B90B00646A0F813
:102000004A20082B00F25781DFE803F01B5E888B23
:102010000B468EC10500D0E9140206F15801FEF707
:1020200037F9B46C96F84720CDF8014044250123D8
:10203000402168468DF80050FEF780FD10B0BDE8E5
:10204000F0874FF480714FF40062C6E91412012347
:10205000F3644FF4A071B1659948F16CB26CF0650E
:10206000CDF80510316D706DCDF80120CDF8091057
:10207000B26DF16DCDF81120CDF80D00CDF8151031
:1020800096F847205824402168468DF80040FEF716
:1020900055FD10B0BDE8F087806CCDF801004421FB
:1020A0008DF8001096F84720012340216846FEF77E
:1020B00045FD306DB0F5804FC0D306F1540110B02E
:1020C000BDE8F047FEF72CB97E4800F08FF906F125
:1020D0004C07044602467B49384600F079F927440C
:1020E00096F847800DF10105261D4FF03F096C461B
:1020F0003F2EA7EB060100F3B48046F040032846CC
:102100008DF80030324600F063F901234021424649
:102110002046FEF713FD10B0BDE8F087FEF796FBF2
:102120007FE7FEF7F1FA7CE7D0E91453002BD8BF24
:102130005F0016DD00F14A0805F580755F0008EBC9
:102140004309A5F5807400212078FEF73DFA01349B
:10215000AC420146F8D128F8020FC84505F5807554
:10216000EFD1F31996F8478004370DF101056C465D
:1021700003F14C064FF03F093F2FA6EB070146DC69
:1021800047F0400328468DF800303A46BBE7446DDF
:10219000016D00F14C0722463846A400FEF778F89E
:1021A000274496F847800DF10105261D4FF03F09A1
:1021B0006C463F2EA7EB06019FDD8DF800902B4665
:1021C00001F1300AD1F800C048688A68D1F80CE003
:1021D000C3F80CE010315145C3F800C058609A6054
:1021E00003F11003EED108684A68D1F808C0C3F8BB
:1021F00008C018605A608A89897B99739A81402146
:10220000012342462046FEF799FC3F3ED1E78DF878
:1022100000902B4601F1300AD1F800C048688A6866
:10222000D1F80CE0C3F80CE010315145C3F800C000
:1022300058609A6003F11003EED108684A68D1F83B
:1022400008C0C3F808C018605A608A89897B9973EE
:102250009A814021012342462046FEF76FFC3F3F12
:102260008AE78DF800902B4601F1300AD1F800C0C2
:1022700048688A68D1F80CE0C3F80CE01031514589
:10228000C3F800C058609A6003F11003EED10868EB
:102290004A68D1F808C0C3F808C018605A608A8933
:1022A000897B99739A814021012342462046FEF79B
:1022B00045FC3F3E1CE70123A0F84A30B1E600BFD1
:1022C0006044115580250000F8B5402190F8472062
:1022D000044603460020FEF7ABFBD0B194F904306E
:1022E00027790026B342267013DBB4F8443007F098
:1022F0003F0504F1480018442A46611D00F068F8C3
:10230000B4F844303F2F05EB030080B203D8A4F8A3
:1023100044000020F8BDA4F84460F8BD10B50C4C92
:102320000623204684F84730FFF7CEFF10B1204641
:10233000FFF75AFE074C0723204684F84730FFF783
:10234000C3FF20B12046BDE81040FFF74DBE10BDD1
:10235000181500209013002000B5E3B00446FFF7E5
:102360004BFC4FF4C4720021684600F047F8E2B21B
:1023700000268DF8472003E0ADF844409DF8472043
:102380006B4640210020FEF753FB0028F6D09DF954
:1023900004309DF804508DF8006005F03F04002BD8
:1023A0000DF105012246E9DBBDF8440012AB1844EB
:1023B00000F00EF8BDF844303F2D1C44A4B2DBD928
:1023C0006846ADF84460002CD8D0FFF70DFED5E785
:1023D0000A44914200F1FF3300D1704710B511F863
:1023E000014B03F8014F9142F9D110BD034613F898
:1023F000012B002AFBD1181A01387047024403460A
:10240000934200D1704703F8011BF9E7416461660C
:102410007275697420496E647573747269657300AE
:1024200046656174686572204D342043414E2045F5
:10243000787072657373000006000000580A0D0082
:10244000590A0D005A000000230A0D000000000088
:102450000C240000202400002C0C00200697FF090B
:1024600001A101150026FF007508954009018102B0
:1024700095400901910295010901B102C0000000D7
:1024800012011002EF0201409A23CD000142010225
:1024900003010000FC618000106080001460800077
:1024A00018608000EB3C90554632205546322000A3
:1024B000020101000240007E3EF83F0001000100E1
:1024C0000000000000000000800029420042004699
:1024D00054485243414E424F4F54464154313620A6
:1024E00020200000494E464F5F5546325458540054
:1024F00080250000494E44455820202048544D0076
:102500001425000043555252454E54205546320082
:10251000000000003C21646F63747970652068746A
:102520006D6C3E0A3C68746D6C3E3C626F64793E33
:102530003C7363726970743E0A6C6F636174696F97
:102540006E2E7265706C6163652822687474703ACF
:102550002F2F6164616672752E69742F3437353997
:1025600022293B0A3C2F7363726970743E3C2F62D0
:102570006F64793E3C2F68746D6C3E0A0000000069
:1025800055463220426F6F746C6F616465722076BD
:10259000332E31362E302053464857524F0D0A4DB8
:1025A0006F64656C3A2046656174686572204D34CD
:1025B0002043414E20457870726573730D0A426F57
:1025C0006172642D49443A2053414D4535314A31B9
:1025D00039412D466561746865724D342D76300D34
:1025E0000A0000000000000800003E800200020017
:1025F00076312E31205B41726475696E6F3A58599D
:102600005A5D204D61722031342032303234203214
:10261000303A31383A30370A0D000000D0FDFF7FE4
:1026200001000000C801000000C201000000080015
:102630000A00000000000306AA00080002000400CF
:10264000A0001400030057494E55534200000000FB
:102650000000000000008400040007002A0044007D
:102660006500760069006300650049006E00740033
:102670006500720066006100630065004700550058
:10268000490044007300000050007B003900320014
:102690004300450036003400360032002D0039007A
:1026A0004300370037002D00340036004600450057
:1026B0002D0039003300330042002D00330031007B
:1026C000430042003900430035004200420033001D
:1026D000420039007D00000000000000050F3900B5
:1026E000021810050038B60834A909A0478BFDA0D0
:1026F000768815B665000101001C100500DF60DD5D
:10270000D88945C74C9CD2659D9E648A9F00000372
:1027100006AA0002000000000902990005010080DD
:1027200032080B000202020100090400000102024B
:1027300001000524001001042402060524060001FE
:102740000524010301070583030800FF09040100B4
:10275000020A00000007058102400000070502028E
:102760004000000904020002080650000705840228
:1027700040000007050502400000090403000203B1
:102780000000000921000100012221000705860345
:10279000400001070506034000010904040002FF90
:1027A0002A010007058703400001070507034000D1
:1027B0000100000009040300020300000300000000
:1027C0000080020220000000000000000000000065
:1027D00000000000000000000000000000000000F9
:1027E000312E3030534253550000000000000000ED
:1027F00000000000000000000000000000000000D9
:1028000000000000000000000000000000000000C8
:1028100000000000000000000000000000000000B8
:1028200000000000000000000000000000000000A8
:103FF0000000000059230000551700008025000034
:00000001FF
